{
  "_format": "hh-sol-artifact-1",
  "contractName": "MyContract",
  "sourceName": "contracts/my_contract.sol",
  "abi": [
    {
      "inputs": [
        {
          "internalType": "address",
          "name": "_owner",
          "type": "address"
        }
      ],
      "stateMutability": "nonpayable",
      "type": "constructor"
    },
    {
      "inputs": [],
      "name": "benefit",
      "outputs": [],
      "stateMutability": "payable",
      "type": "function"
    },
    {
      "inputs": [],
      "name": "getContributors",
      "outputs": [
        {
          "internalType": "address[]",
          "name": "",
          "type": "address[]"
        }
      ],
      "stateMutability": "view",
      "type": "function"
    },
    {
      "inputs": [
        {
          "internalType": "address",
          "name": "_contributor",
          "type": "address"
        }
      ],
      "name": "getDonationsByContributor",
      "outputs": [
        {
          "internalType": "uint256",
          "name": "",
          "type": "uint256"
        }
      ],
      "stateMutability": "view",
      "type": "function"
    },
    {
      "inputs": [
        {
          "internalType": "address payable",
          "name": "_to",
          "type": "address"
        },
        {
          "internalType": "uint256",
          "name": "_value",
          "type": "uint256"
        }
      ],
      "name": "sendABenefits",
      "outputs": [],
      "stateMutability": "nonpayable",
      "type": "function"
    }
  ],
  "bytecode": "0x608060405234801561001057600080fd5b506040516108a63803806108a68339818101604052810190610032919061008d565b806000806101000a81548173ffffffffffffffffffffffffffffffffffffffff021916908373ffffffffffffffffffffffffffffffffffffffff160217905550506100ff565b600081519050610087816100e8565b92915050565b60006020828403121561009f57600080fd5b60006100ad84828501610078565b91505092915050565b60006100c1826100c8565b9050919050565b600073ffffffffffffffffffffffffffffffffffffffff82169050919050565b6100f1816100b6565b81146100fc57600080fd5b50565b6107988061010e6000396000f3fe60806040526004361061003f5760003560e01c806317e825fd146100445780632e5113b71461006d57806395bdad3c14610077578063af157c19146100b4575b600080fd5b34801561005057600080fd5b5061006b6004803603810190610066919061046d565b6100df565b005b61007561019c565b005b34801561008357600080fd5b5061009e60048036038101906100999190610444565b6102ac565b6040516100ab91906105e5565b60405180910390f35b3480156100c057600080fd5b506100c9610377565b6040516100d691906105a3565b60405180910390f35b60008054906101000a900473ffffffffffffffffffffffffffffffffffffffff1673ffffffffffffffffffffffffffffffffffffffff163373ffffffffffffffffffffffffffffffffffffffff161461013757600080fd5b6000811161014457600080fd5b8047101561015157600080fd5b8173ffffffffffffffffffffffffffffffffffffffff166108fc829081150290604051600060405180830381858888f19350505050158015610197573d6000803e3d6000fd5b505050565b600034116101a957600080fd5b6000600260003373ffffffffffffffffffffffffffffffffffffffff1673ffffffffffffffffffffffffffffffffffffffff1681526020019081526020016000205414610254576001339080600181540180825580915050600190039060005260206000200160009091909190916101000a81548173ffffffffffffffffffffffffffffffffffffffff021916908373ffffffffffffffffffffffffffffffffffffffff1602179055505b34600260003373ffffffffffffffffffffffffffffffffffffffff1673ffffffffffffffffffffffffffffffffffffffff16815260200190815260200160002060008282546102a3919061064a565b92505081905550565b600080600260008473ffffffffffffffffffffffffffffffffffffffff1673ffffffffffffffffffffffffffffffffffffffff168152602001908152602001600020541415610330576040517f08c379a0000000000000000000000000000000000000000000000000000000008152600401610327906105c5565b60405180910390fd5b600260008373ffffffffffffffffffffffffffffffffffffffff1673ffffffffffffffffffffffffffffffffffffffff168152602001908152602001600020549050919050565b606060018054806020026020016040519081016040528092919081815260200182805480156103fb57602002820191906000526020600020905b8160009054906101000a900473ffffffffffffffffffffffffffffffffffffffff1673ffffffffffffffffffffffffffffffffffffffff16815260200190600101908083116103b1575b5050505050905090565b6000813590506104148161071d565b92915050565b60008135905061042981610734565b92915050565b60008135905061043e8161074b565b92915050565b60006020828403121561045657600080fd5b600061046484828501610405565b91505092915050565b6000806040838503121561048057600080fd5b600061048e8582860161041a565b925050602061049f8582860161042f565b9150509250929050565b60006104b583836104c1565b60208301905092915050565b6104ca816106a0565b82525050565b60006104db82610610565b6104e58185610628565b93506104f083610600565b8060005b8381101561052157815161050888826104a9565b97506105138361061b565b9250506001810190506104f4565b5085935050505092915050565b600061053b602a83610639565b91507f57652068617665206e6f20646f6e6174696f6e732073656e742062792074686960008301527f73206163636f756e7421000000000000000000000000000000000000000000006020830152604082019050919050565b61059d816106e4565b82525050565b600060208201905081810360008301526105bd81846104d0565b905092915050565b600060208201905081810360008301526105de8161052e565b9050919050565b60006020820190506105fa6000830184610594565b92915050565b6000819050602082019050919050565b600081519050919050565b6000602082019050919050565b600082825260208201905092915050565b600082825260208201905092915050565b6000610655826106e4565b9150610660836106e4565b9250827fffffffffffffffffffffffffffffffffffffffffffffffffffffffffffffffff03821115610695576106946106ee565b5b828201905092915050565b60006106ab826106c4565b9050919050565b60006106bd826106c4565b9050919050565b600073ffffffffffffffffffffffffffffffffffffffff82169050919050565b6000819050919050565b7f4e487b7100000000000000000000000000000000000000000000000000000000600052601160045260246000fd5b610726816106a0565b811461073157600080fd5b50565b61073d816106b2565b811461074857600080fd5b50565b610754816106e4565b811461075f57600080fd5b5056fea2646970667358221220090170a6dae3f7d99d24824f4b7d46e5434f11c7ce8948a4c87fe79a8ccf339764736f6c63430008000033",
  "linkReferences": {},
  "deployedLinkReferences": {}
}