{
  "_format": "hh-sol-artifact-1",
  "contractName": "MyContract",
  "sourceName": "contracts/my_contract.sol",
  "abi": [
    {
      "inputs": [],
      "stateMutability": "nonpayable",
      "type": "constructor"
    },
    {
      "inputs": [],
      "name": "benefit",
      "outputs": [],
      "stateMutability": "payable",
      "type": "function"
    },
    {
      "inputs": [],
      "name": "getContributors",
      "outputs": [
        {
          "internalType": "address[]",
          "name": "",
          "type": "address[]"
        }
      ],
      "stateMutability": "view",
      "type": "function"
    },
    {
      "inputs": [
        {
          "internalType": "address",
          "name": "_contributor",
          "type": "address"
        }
      ],
      "name": "getDonationsByContributor",
      "outputs": [
        {
          "internalType": "uint256",
          "name": "",
          "type": "uint256"
        }
      ],
      "stateMutability": "view",
      "type": "function"
    },
    {
      "inputs": [],
      "name": "owner",
      "outputs": [
        {
          "internalType": "address",
          "name": "",
          "type": "address"
        }
      ],
      "stateMutability": "view",
      "type": "function"
    },
    {
      "inputs": [
        {
          "internalType": "address payable",
          "name": "_to",
          "type": "address"
        },
        {
          "internalType": "uint256",
          "name": "_value",
          "type": "uint256"
        }
      ],
      "name": "sendABenefits",
      "outputs": [
        {
          "internalType": "uint256",
          "name": "",
          "type": "uint256"
        }
      ],
      "stateMutability": "nonpayable",
      "type": "function"
    },
    {
      "inputs": [
        {
          "internalType": "address payable",
          "name": "_to",
          "type": "address"
        }
      ],
      "name": "sendAllBenefits",
      "outputs": [],
      "stateMutability": "nonpayable",
      "type": "function"
    }
  ],
  "bytecode": "0x60806040526729a2241af62c000060015534801561001c57600080fd5b50336000806101000a81548173ffffffffffffffffffffffffffffffffffffffff021916908373ffffffffffffffffffffffffffffffffffffffff160217905550610a9a8061006c6000396000f3fe6080604052600436106100555760003560e01c806310387e4b1461005a57806317e825fd146100835780632e5113b7146100c05780638da5cb5b146100ca57806395bdad3c146100f5578063af157c1914610132575b600080fd5b34801561006657600080fd5b50610081600480360381019061007c919061065c565b61015d565b005b34801561008f57600080fd5b506100aa60048036038101906100a59190610685565b610235565b6040516100b791906108e7565b60405180910390f35b6100c8610366565b005b3480156100d657600080fd5b506100df610477565b6040516100ec919061084a565b60405180910390f35b34801561010157600080fd5b5061011c60048036038101906101179190610633565b61049b565b60405161012991906108e7565b60405180910390f35b34801561013e57600080fd5b50610147610566565b6040516101549190610865565b60405180910390f35b60008054906101000a900473ffffffffffffffffffffffffffffffffffffffff1673ffffffffffffffffffffffffffffffffffffffff163373ffffffffffffffffffffffffffffffffffffffff16146101eb576040517f08c379a00000000000000000000000000000000000000000000000000000000081526004016101e290610887565b60405180910390fd5b8073ffffffffffffffffffffffffffffffffffffffff166108fc479081150290604051600060405180830381858888f19350505050158015610231573d6000803e3d6000fd5b5050565b60008060009054906101000a900473ffffffffffffffffffffffffffffffffffffffff1673ffffffffffffffffffffffffffffffffffffffff163373ffffffffffffffffffffffffffffffffffffffff16146102c6576040517f08c379a00000000000000000000000000000000000000000000000000000000081526004016102bd90610887565b60405180910390fd5b60008211610309576040517f08c379a0000000000000000000000000000000000000000000000000000000008152600401610300906108c7565b60405180910390fd5b8147101561031657600080fd5b8273ffffffffffffffffffffffffffffffffffffffff166108fc839081150290604051600060405180830381858888f1935050505015801561035c573d6000803e3d6000fd5b5081905092915050565b6000341161037357600080fd5b6000600360003373ffffffffffffffffffffffffffffffffffffffff1673ffffffffffffffffffffffffffffffffffffffff16815260200190815260200160002054141561041f576002339080600181540180825580915050600190039060005260206000200160009091909190916101000a81548173ffffffffffffffffffffffffffffffffffffffff021916908373ffffffffffffffffffffffffffffffffffffffff1602179055505b34600360003373ffffffffffffffffffffffffffffffffffffffff1673ffffffffffffffffffffffffffffffffffffffff168152602001908152602001600020600082825461046e919061094c565b92505081905550565b60008054906101000a900473ffffffffffffffffffffffffffffffffffffffff1681565b600080600360008473ffffffffffffffffffffffffffffffffffffffff1673ffffffffffffffffffffffffffffffffffffffff16815260200190815260200160002054141561051f576040517f08c379a0000000000000000000000000000000000000000000000000000000008152600401610516906108a7565b60405180910390fd5b600360008373ffffffffffffffffffffffffffffffffffffffff1673ffffffffffffffffffffffffffffffffffffffff168152602001908152602001600020549050919050565b606060028054806020026020016040519081016040528092919081815260200182805480156105ea57602002820191906000526020600020905b8160009054906101000a900473ffffffffffffffffffffffffffffffffffffffff1673ffffffffffffffffffffffffffffffffffffffff16815260200190600101908083116105a0575b5050505050905090565b60008135905061060381610a1f565b92915050565b60008135905061061881610a36565b92915050565b60008135905061062d81610a4d565b92915050565b60006020828403121561064557600080fd5b6000610653848285016105f4565b91505092915050565b60006020828403121561066e57600080fd5b600061067c84828501610609565b91505092915050565b6000806040838503121561069857600080fd5b60006106a685828601610609565b92505060206106b78582860161061e565b9150509250929050565b60006106cd83836106d9565b60208301905092915050565b6106e2816109a2565b82525050565b6106f1816109a2565b82525050565b600061070282610912565b61070c818561092a565b935061071783610902565b8060005b8381101561074857815161072f88826106c1565b975061073a8361091d565b92505060018101905061071b565b5085935050505092915050565b600061076260128361093b565b91507f596f7520617265206e6f74206f776e65722100000000000000000000000000006000830152602082019050919050565b60006107a2602a8361093b565b91507f57652068617665206e6f20646f6e6174696f6e732073656e742062792074686960008301527f73206163636f756e7421000000000000000000000000000000000000000000006020830152604082019050919050565b600061080860178361093b565b91507f506c656173652073656e6420612076616c7565203e20300000000000000000006000830152602082019050919050565b610844816109e6565b82525050565b600060208201905061085f60008301846106e8565b92915050565b6000602082019050818103600083015261087f81846106f7565b905092915050565b600060208201905081810360008301526108a081610755565b9050919050565b600060208201905081810360008301526108c081610795565b9050919050565b600060208201905081810360008301526108e0816107fb565b9050919050565b60006020820190506108fc600083018461083b565b92915050565b6000819050602082019050919050565b600081519050919050565b6000602082019050919050565b600082825260208201905092915050565b600082825260208201905092915050565b6000610957826109e6565b9150610962836109e6565b9250827fffffffffffffffffffffffffffffffffffffffffffffffffffffffffffffffff03821115610997576109966109f0565b5b828201905092915050565b60006109ad826109c6565b9050919050565b60006109bf826109c6565b9050919050565b600073ffffffffffffffffffffffffffffffffffffffff82169050919050565b6000819050919050565b7f4e487b7100000000000000000000000000000000000000000000000000000000600052601160045260246000fd5b610a28816109a2565b8114610a3357600080fd5b50565b610a3f816109b4565b8114610a4a57600080fd5b50565b610a56816109e6565b8114610a6157600080fd5b5056fea2646970667358221220fd02f5aff273523874c012e4b9ed9e905986f2fd333d71b42f3946754ef56dd864736f6c63430008000033",
  "linkReferences": {},
  "deployedLinkReferences": {}
}