{
  "_format": "hh-sol-artifact-1",
  "contractName": "MyContract",
  "sourceName": "contracts/my_contract.sol",
  "abi": [
    {
      "inputs": [],
      "stateMutability": "nonpayable",
      "type": "constructor"
    },
    {
      "inputs": [],
      "name": "benefit",
      "outputs": [],
      "stateMutability": "payable",
      "type": "function"
    },
    {
      "inputs": [],
      "name": "getContributors",
      "outputs": [
        {
          "internalType": "address[]",
          "name": "",
          "type": "address[]"
        }
      ],
      "stateMutability": "view",
      "type": "function"
    },
    {
      "inputs": [
        {
          "internalType": "address",
          "name": "_contributor",
          "type": "address"
        }
      ],
      "name": "getDonationsByContributor",
      "outputs": [
        {
          "internalType": "uint256",
          "name": "",
          "type": "uint256"
        }
      ],
      "stateMutability": "view",
      "type": "function"
    },
    {
      "inputs": [],
      "name": "owner",
      "outputs": [
        {
          "internalType": "address",
          "name": "",
          "type": "address"
        }
      ],
      "stateMutability": "view",
      "type": "function"
    },
    {
      "inputs": [
        {
          "internalType": "address payable",
          "name": "_to",
          "type": "address"
        },
        {
          "internalType": "uint256",
          "name": "_value",
          "type": "uint256"
        }
      ],
      "name": "sendABenefits",
      "outputs": [],
      "stateMutability": "nonpayable",
      "type": "function"
    },
    {
      "inputs": [
        {
          "internalType": "address payable",
          "name": "_to",
          "type": "address"
        }
      ],
      "name": "sendAllBenefits",
      "outputs": [],
      "stateMutability": "nonpayable",
      "type": "function"
    }
  ],
  "bytecode": "0x608060405234801561001057600080fd5b50336000806101000a81548173ffffffffffffffffffffffffffffffffffffffff021916908373ffffffffffffffffffffffffffffffffffffffff160217905550610a7d806100606000396000f3fe6080604052600436106100555760003560e01c806310387e4b1461005a57806317e825fd146100835780632e5113b7146100ac5780638da5cb5b146100b657806395bdad3c146100e1578063af157c191461011e575b600080fd5b34801561006657600080fd5b50610081600480360381019061007c919061063f565b610149565b005b34801561008f57600080fd5b506100aa60048036038101906100a59190610668565b610221565b005b6100b461034a565b005b3480156100c257600080fd5b506100cb61045a565b6040516100d8919061082d565b60405180910390f35b3480156100ed57600080fd5b5061010860048036038101906101039190610616565b61047e565b60405161011591906108ca565b60405180910390f35b34801561012a57600080fd5b50610133610549565b6040516101409190610848565b60405180910390f35b60008054906101000a900473ffffffffffffffffffffffffffffffffffffffff1673ffffffffffffffffffffffffffffffffffffffff163373ffffffffffffffffffffffffffffffffffffffff16146101d7576040517f08c379a00000000000000000000000000000000000000000000000000000000081526004016101ce9061086a565b60405180910390fd5b8073ffffffffffffffffffffffffffffffffffffffff166108fc479081150290604051600060405180830381858888f1935050505015801561021d573d6000803e3d6000fd5b5050565b60008054906101000a900473ffffffffffffffffffffffffffffffffffffffff1673ffffffffffffffffffffffffffffffffffffffff163373ffffffffffffffffffffffffffffffffffffffff16146102af576040517f08c379a00000000000000000000000000000000000000000000000000000000081526004016102a69061086a565b60405180910390fd5b600081116102f2576040517f08c379a00000000000000000000000000000000000000000000000000000000081526004016102e9906108aa565b60405180910390fd5b804710156102ff57600080fd5b8173ffffffffffffffffffffffffffffffffffffffff166108fc829081150290604051600060405180830381858888f19350505050158015610345573d6000803e3d6000fd5b505050565b6000341161035757600080fd5b6000600260003373ffffffffffffffffffffffffffffffffffffffff1673ffffffffffffffffffffffffffffffffffffffff1681526020019081526020016000205414610402576001339080600181540180825580915050600190039060005260206000200160009091909190916101000a81548173ffffffffffffffffffffffffffffffffffffffff021916908373ffffffffffffffffffffffffffffffffffffffff1602179055505b34600260003373ffffffffffffffffffffffffffffffffffffffff1673ffffffffffffffffffffffffffffffffffffffff1681526020019081526020016000206000828254610451919061092f565b92505081905550565b60008054906101000a900473ffffffffffffffffffffffffffffffffffffffff1681565b600080600260008473ffffffffffffffffffffffffffffffffffffffff1673ffffffffffffffffffffffffffffffffffffffff168152602001908152602001600020541415610502576040517f08c379a00000000000000000000000000000000000000000000000000000000081526004016104f99061088a565b60405180910390fd5b600260008373ffffffffffffffffffffffffffffffffffffffff1673ffffffffffffffffffffffffffffffffffffffff168152602001908152602001600020549050919050565b606060018054806020026020016040519081016040528092919081815260200182805480156105cd57602002820191906000526020600020905b8160009054906101000a900473ffffffffffffffffffffffffffffffffffffffff1673ffffffffffffffffffffffffffffffffffffffff1681526020019060010190808311610583575b5050505050905090565b6000813590506105e681610a02565b92915050565b6000813590506105fb81610a19565b92915050565b60008135905061061081610a30565b92915050565b60006020828403121561062857600080fd5b6000610636848285016105d7565b91505092915050565b60006020828403121561065157600080fd5b600061065f848285016105ec565b91505092915050565b6000806040838503121561067b57600080fd5b6000610689858286016105ec565b925050602061069a85828601610601565b9150509250929050565b60006106b083836106bc565b60208301905092915050565b6106c581610985565b82525050565b6106d481610985565b82525050565b60006106e5826108f5565b6106ef818561090d565b93506106fa836108e5565b8060005b8381101561072b57815161071288826106a4565b975061071d83610900565b9250506001810190506106fe565b5085935050505092915050565b600061074560128361091e565b91507f596f7520617265206e6f74206f776e65722100000000000000000000000000006000830152602082019050919050565b6000610785602a8361091e565b91507f57652068617665206e6f20646f6e6174696f6e732073656e742062792074686960008301527f73206163636f756e7421000000000000000000000000000000000000000000006020830152604082019050919050565b60006107eb60178361091e565b91507f506c656173652073656e6420612076616c7565203e20300000000000000000006000830152602082019050919050565b610827816109c9565b82525050565b600060208201905061084260008301846106cb565b92915050565b6000602082019050818103600083015261086281846106da565b905092915050565b6000602082019050818103600083015261088381610738565b9050919050565b600060208201905081810360008301526108a381610778565b9050919050565b600060208201905081810360008301526108c3816107de565b9050919050565b60006020820190506108df600083018461081e565b92915050565b6000819050602082019050919050565b600081519050919050565b6000602082019050919050565b600082825260208201905092915050565b600082825260208201905092915050565b600061093a826109c9565b9150610945836109c9565b9250827fffffffffffffffffffffffffffffffffffffffffffffffffffffffffffffffff0382111561097a576109796109d3565b5b828201905092915050565b6000610990826109a9565b9050919050565b60006109a2826109a9565b9050919050565b600073ffffffffffffffffffffffffffffffffffffffff82169050919050565b6000819050919050565b7f4e487b7100000000000000000000000000000000000000000000000000000000600052601160045260246000fd5b610a0b81610985565b8114610a1657600080fd5b50565b610a2281610997565b8114610a2d57600080fd5b50565b610a39816109c9565b8114610a4457600080fd5b5056fea2646970667358221220e9414e556c96e4b903b15c473fde1d00a906b2cc3b26c482441a1034f6dc041864736f6c63430008000033",
  "linkReferences": {},
  "deployedLinkReferences": {}
}